{
	"data": {
		"bytecode": {
			"linkReferences": {},
			"object": "6080604052348015600e575f80fd5b5061053b8061001c5f395ff3fe608060405234801561000f575f80fd5b506004361061003f575f3560e01c80634d63e206146100435780638aeeae49146100735780638f627444146100a3575b5f80fd5b61005d600480360381019061005891906102eb565b6100c1565b60405161006a9190610355565b60405180910390f35b61008d600480360381019061008891906102eb565b6100f4565b60405161009a9190610388565b60405180910390f35b6100ab610212565b6040516100b89190610446565b60405180910390f35b5f81601081106100cf575f80fd5b015f915054906101000a900473ffffffffffffffffffffffffffffffffffffffff1681565b5f8082101580156101065750600f8211155b61010e575f80fd5b5f600190505f73ffffffffffffffffffffffffffffffffffffffff165f846010811061013d5761013c610460565b5b015f9054906101000a900473ffffffffffffffffffffffffffffffffffffffff1673ffffffffffffffffffffffffffffffffffffffff160361020557335f846010811061018d5761018c610460565b5b015f6101000a81548173ffffffffffffffffffffffffffffffffffffffff021916908373ffffffffffffffffffffffffffffffffffffffff1602179055507f1b30e0a556ea9ec102edf7e7869684d78efe978a98e6ea23b86dd868b33508cf6040516101f8906104e7565b60405180910390a1610209565b5f90505b80915050919050565b61021a610291565b5f601080602002604051908101604052809291908260108015610287576020028201915b815f9054906101000a900473ffffffffffffffffffffffffffffffffffffffff1673ffffffffffffffffffffffffffffffffffffffff168152602001906001019080831161023e575b5050505050905090565b604051806102000160405280601090602082028036833780820191505090505090565b5f80fd5b5f819050919050565b6102ca816102b8565b81146102d4575f80fd5b50565b5f813590506102e5816102c1565b92915050565b5f60208284031215610300576102ff6102b4565b5b5f61030d848285016102d7565b91505092915050565b5f73ffffffffffffffffffffffffffffffffffffffff82169050919050565b5f61033f82610316565b9050919050565b61034f81610335565b82525050565b5f6020820190506103685f830184610346565b92915050565b5f8115159050919050565b6103828161036e565b82525050565b5f60208201905061039b5f830184610379565b92915050565b5f60109050919050565b5f81905092915050565b5f819050919050565b6103c781610335565b82525050565b5f6103d883836103be565b60208301905092915050565b5f602082019050919050565b6103f9816103a1565b61040381846103ab565b925061040e826103b5565b805f5b8381101561043e57815161042587826103cd565b9650610430836103e4565b925050600181019050610411565b505050505050565b5f6102008201905061045a5f8301846103f0565b92915050565b7f4e487b71000000000000000000000000000000000000000000000000000000005f52603260045260245ffd5b5f82825260208201905092915050565b7f54696b657420636f6d707261646f0000000000000000000000000000000000005f82015250565b5f6104d1600e8361048d565b91506104dc8261049d565b602082019050919050565b5f6020820190508181035f8301526104fe816104c5565b905091905056fea26469706673582212208ecad1ef7b7d924e0e836f24af539895b7d26089004690edf06f77bb12c5cdcb64736f6c634300081a0033",
			"opcodes": "PUSH1 0x80 PUSH1 0x40 MSTORE CALLVALUE DUP1 ISZERO PUSH1 0xE JUMPI PUSH0 DUP1 REVERT JUMPDEST POP PUSH2 0x53B DUP1 PUSH2 0x1C PUSH0 CODECOPY PUSH0 RETURN INVALID PUSH1 0x80 PUSH1 0x40 MSTORE CALLVALUE DUP1 ISZERO PUSH2 0xF JUMPI PUSH0 DUP1 REVERT JUMPDEST POP PUSH1 0x4 CALLDATASIZE LT PUSH2 0x3F JUMPI PUSH0 CALLDATALOAD PUSH1 0xE0 SHR DUP1 PUSH4 0x4D63E206 EQ PUSH2 0x43 JUMPI DUP1 PUSH4 0x8AEEAE49 EQ PUSH2 0x73 JUMPI DUP1 PUSH4 0x8F627444 EQ PUSH2 0xA3 JUMPI JUMPDEST PUSH0 DUP1 REVERT JUMPDEST PUSH2 0x5D PUSH1 0x4 DUP1 CALLDATASIZE SUB DUP2 ADD SWAP1 PUSH2 0x58 SWAP2 SWAP1 PUSH2 0x2EB JUMP JUMPDEST PUSH2 0xC1 JUMP JUMPDEST PUSH1 0x40 MLOAD PUSH2 0x6A SWAP2 SWAP1 PUSH2 0x355 JUMP JUMPDEST PUSH1 0x40 MLOAD DUP1 SWAP2 SUB SWAP1 RETURN JUMPDEST PUSH2 0x8D PUSH1 0x4 DUP1 CALLDATASIZE SUB DUP2 ADD SWAP1 PUSH2 0x88 SWAP2 SWAP1 PUSH2 0x2EB JUMP JUMPDEST PUSH2 0xF4 JUMP JUMPDEST PUSH1 0x40 MLOAD PUSH2 0x9A SWAP2 SWAP1 PUSH2 0x388 JUMP JUMPDEST PUSH1 0x40 MLOAD DUP1 SWAP2 SUB SWAP1 RETURN JUMPDEST PUSH2 0xAB PUSH2 0x212 JUMP JUMPDEST PUSH1 0x40 MLOAD PUSH2 0xB8 SWAP2 SWAP1 PUSH2 0x446 JUMP JUMPDEST PUSH1 0x40 MLOAD DUP1 SWAP2 SUB SWAP1 RETURN JUMPDEST PUSH0 DUP2 PUSH1 0x10 DUP2 LT PUSH2 0xCF JUMPI PUSH0 DUP1 REVERT JUMPDEST ADD PUSH0 SWAP2 POP SLOAD SWAP1 PUSH2 0x100 EXP SWAP1 DIV PUSH20 0xFFFFFFFFFFFFFFFFFFFFFFFFFFFFFFFFFFFFFFFF AND DUP2 JUMP JUMPDEST PUSH0 DUP1 DUP3 LT ISZERO DUP1 ISZERO PUSH2 0x106 JUMPI POP PUSH1 0xF DUP3 GT ISZERO JUMPDEST PUSH2 0x10E JUMPI PUSH0 DUP1 REVERT JUMPDEST PUSH0 PUSH1 0x1 SWAP1 POP PUSH0 PUSH20 0xFFFFFFFFFFFFFFFFFFFFFFFFFFFFFFFFFFFFFFFF AND PUSH0 DUP5 PUSH1 0x10 DUP2 LT PUSH2 0x13D JUMPI PUSH2 0x13C PUSH2 0x460 JUMP JUMPDEST JUMPDEST ADD PUSH0 SWAP1 SLOAD SWAP1 PUSH2 0x100 EXP SWAP1 DIV PUSH20 0xFFFFFFFFFFFFFFFFFFFFFFFFFFFFFFFFFFFFFFFF AND PUSH20 0xFFFFFFFFFFFFFFFFFFFFFFFFFFFFFFFFFFFFFFFF AND SUB PUSH2 0x205 JUMPI CALLER PUSH0 DUP5 PUSH1 0x10 DUP2 LT PUSH2 0x18D JUMPI PUSH2 0x18C PUSH2 0x460 JUMP JUMPDEST JUMPDEST ADD PUSH0 PUSH2 0x100 EXP DUP2 SLOAD DUP2 PUSH20 0xFFFFFFFFFFFFFFFFFFFFFFFFFFFFFFFFFFFFFFFF MUL NOT AND SWAP1 DUP4 PUSH20 0xFFFFFFFFFFFFFFFFFFFFFFFFFFFFFFFFFFFFFFFF AND MUL OR SWAP1 SSTORE POP PUSH32 0x1B30E0A556EA9EC102EDF7E7869684D78EFE978A98E6EA23B86DD868B33508CF PUSH1 0x40 MLOAD PUSH2 0x1F8 SWAP1 PUSH2 0x4E7 JUMP JUMPDEST PUSH1 0x40 MLOAD DUP1 SWAP2 SUB SWAP1 LOG1 PUSH2 0x209 JUMP JUMPDEST PUSH0 SWAP1 POP JUMPDEST DUP1 SWAP2 POP POP SWAP2 SWAP1 POP JUMP JUMPDEST PUSH2 0x21A PUSH2 0x291 JUMP JUMPDEST PUSH0 PUSH1 0x10 DUP1 PUSH1 0x20 MUL PUSH1 0x40 MLOAD SWAP1 DUP2 ADD PUSH1 0x40 MSTORE DUP1 SWAP3 SWAP2 SWAP1 DUP3 PUSH1 0x10 DUP1 ISZERO PUSH2 0x287 JUMPI PUSH1 0x20 MUL DUP3 ADD SWAP2 JUMPDEST DUP2 PUSH0 SWAP1 SLOAD SWAP1 PUSH2 0x100 EXP SWAP1 DIV PUSH20 0xFFFFFFFFFFFFFFFFFFFFFFFFFFFFFFFFFFFFFFFF AND PUSH20 0xFFFFFFFFFFFFFFFFFFFFFFFFFFFFFFFFFFFFFFFF AND DUP2 MSTORE PUSH1 0x20 ADD SWAP1 PUSH1 0x1 ADD SWAP1 DUP1 DUP4 GT PUSH2 0x23E JUMPI JUMPDEST POP POP POP POP POP SWAP1 POP SWAP1 JUMP JUMPDEST PUSH1 0x40 MLOAD DUP1 PUSH2 0x200 ADD PUSH1 0x40 MSTORE DUP1 PUSH1 0x10 SWAP1 PUSH1 0x20 DUP3 MUL DUP1 CALLDATASIZE DUP4 CALLDATACOPY DUP1 DUP3 ADD SWAP2 POP POP SWAP1 POP POP SWAP1 JUMP JUMPDEST PUSH0 DUP1 REVERT JUMPDEST PUSH0 DUP2 SWAP1 POP SWAP2 SWAP1 POP JUMP JUMPDEST PUSH2 0x2CA DUP2 PUSH2 0x2B8 JUMP JUMPDEST DUP2 EQ PUSH2 0x2D4 JUMPI PUSH0 DUP1 REVERT JUMPDEST POP JUMP JUMPDEST PUSH0 DUP2 CALLDATALOAD SWAP1 POP PUSH2 0x2E5 DUP2 PUSH2 0x2C1 JUMP JUMPDEST SWAP3 SWAP2 POP POP JUMP JUMPDEST PUSH0 PUSH1 0x20 DUP3 DUP5 SUB SLT ISZERO PUSH2 0x300 JUMPI PUSH2 0x2FF PUSH2 0x2B4 JUMP JUMPDEST JUMPDEST PUSH0 PUSH2 0x30D DUP5 DUP3 DUP6 ADD PUSH2 0x2D7 JUMP JUMPDEST SWAP2 POP POP SWAP3 SWAP2 POP POP JUMP JUMPDEST PUSH0 PUSH20 0xFFFFFFFFFFFFFFFFFFFFFFFFFFFFFFFFFFFFFFFF DUP3 AND SWAP1 POP SWAP2 SWAP1 POP JUMP JUMPDEST PUSH0 PUSH2 0x33F DUP3 PUSH2 0x316 JUMP JUMPDEST SWAP1 POP SWAP2 SWAP1 POP JUMP JUMPDEST PUSH2 0x34F DUP2 PUSH2 0x335 JUMP JUMPDEST DUP3 MSTORE POP POP JUMP JUMPDEST PUSH0 PUSH1 0x20 DUP3 ADD SWAP1 POP PUSH2 0x368 PUSH0 DUP4 ADD DUP5 PUSH2 0x346 JUMP JUMPDEST SWAP3 SWAP2 POP POP JUMP JUMPDEST PUSH0 DUP2 ISZERO ISZERO SWAP1 POP SWAP2 SWAP1 POP JUMP JUMPDEST PUSH2 0x382 DUP2 PUSH2 0x36E JUMP JUMPDEST DUP3 MSTORE POP POP JUMP JUMPDEST PUSH0 PUSH1 0x20 DUP3 ADD SWAP1 POP PUSH2 0x39B PUSH0 DUP4 ADD DUP5 PUSH2 0x379 JUMP JUMPDEST SWAP3 SWAP2 POP POP JUMP JUMPDEST PUSH0 PUSH1 0x10 SWAP1 POP SWAP2 SWAP1 POP JUMP JUMPDEST PUSH0 DUP2 SWAP1 POP SWAP3 SWAP2 POP POP JUMP JUMPDEST PUSH0 DUP2 SWAP1 POP SWAP2 SWAP1 POP JUMP JUMPDEST PUSH2 0x3C7 DUP2 PUSH2 0x335 JUMP JUMPDEST DUP3 MSTORE POP POP JUMP JUMPDEST PUSH0 PUSH2 0x3D8 DUP4 DUP4 PUSH2 0x3BE JUMP JUMPDEST PUSH1 0x20 DUP4 ADD SWAP1 POP SWAP3 SWAP2 POP POP JUMP JUMPDEST PUSH0 PUSH1 0x20 DUP3 ADD SWAP1 POP SWAP2 SWAP1 POP JUMP JUMPDEST PUSH2 0x3F9 DUP2 PUSH2 0x3A1 JUMP JUMPDEST PUSH2 0x403 DUP2 DUP5 PUSH2 0x3AB JUMP JUMPDEST SWAP3 POP PUSH2 0x40E DUP3 PUSH2 0x3B5 JUMP JUMPDEST DUP1 PUSH0 JUMPDEST DUP4 DUP2 LT ISZERO PUSH2 0x43E JUMPI DUP2 MLOAD PUSH2 0x425 DUP8 DUP3 PUSH2 0x3CD JUMP JUMPDEST SWAP7 POP PUSH2 0x430 DUP4 PUSH2 0x3E4 JUMP JUMPDEST SWAP3 POP POP PUSH1 0x1 DUP2 ADD SWAP1 POP PUSH2 0x411 JUMP JUMPDEST POP POP POP POP POP POP JUMP JUMPDEST PUSH0 PUSH2 0x200 DUP3 ADD SWAP1 POP PUSH2 0x45A PUSH0 DUP4 ADD DUP5 PUSH2 0x3F0 JUMP JUMPDEST SWAP3 SWAP2 POP POP JUMP JUMPDEST PUSH32 0x4E487B7100000000000000000000000000000000000000000000000000000000 PUSH0 MSTORE PUSH1 0x32 PUSH1 0x4 MSTORE PUSH1 0x24 PUSH0 REVERT JUMPDEST PUSH0 DUP3 DUP3 MSTORE PUSH1 0x20 DUP3 ADD SWAP1 POP SWAP3 SWAP2 POP POP JUMP JUMPDEST PUSH32 0x54696B657420636F6D707261646F000000000000000000000000000000000000 PUSH0 DUP3 ADD MSTORE POP JUMP JUMPDEST PUSH0 PUSH2 0x4D1 PUSH1 0xE DUP4 PUSH2 0x48D JUMP JUMPDEST SWAP2 POP PUSH2 0x4DC DUP3 PUSH2 0x49D JUMP JUMPDEST PUSH1 0x20 DUP3 ADD SWAP1 POP SWAP2 SWAP1 POP JUMP JUMPDEST PUSH0 PUSH1 0x20 DUP3 ADD SWAP1 POP DUP2 DUP2 SUB PUSH0 DUP4 ADD MSTORE PUSH2 0x4FE DUP2 PUSH2 0x4C5 JUMP JUMPDEST SWAP1 POP SWAP2 SWAP1 POP JUMP INVALID LOG2 PUSH5 0x6970667358 0x22 SLT KECCAK256 DUP15 0xCA 0xD1 0xEF PUSH28 0x7D924E0E836F24AF539895B7D26089004690EDF06F77BB12C5CDCB64 PUSH20 0x6F6C634300081A00330000000000000000000000 "
		},
		"gasEstimates": {
			"creation": {
				"codeDepositCost": "267800",
				"executionCost": "304",
				"totalCost": "268104"
			},
			"external": {
				"buyTiket(uint256)": "28963",
				"getTikets()": "infinite",
				"tikets(uint256)": "2772"
			}
		},
		"methodIdentifiers": {
			"buyTiket(uint256)": "8aeeae49",
			"getTikets()": "8f627444",
			"tikets(uint256)": "4d63e206"
		}
	},
	"abi": [
		{
			"anonymous": false,
			"inputs": [
				{
					"indexed": false,
					"internalType": "string",
					"name": "mensaje",
					"type": "string"
				}
			],
			"name": "simpleConsoleLog",
			"type": "event"
		},
		{
			"inputs": [
				{
					"internalType": "uint256",
					"name": "tiketIndex",
					"type": "uint256"
				}
			],
			"name": "buyTiket",
			"outputs": [
				{
					"internalType": "bool",
					"name": "",
					"type": "bool"
				}
			],
			"stateMutability": "nonpayable",
			"type": "function"
		},
		{
			"inputs": [],
			"name": "getTikets",
			"outputs": [
				{
					"internalType": "address[16]",
					"name": "",
					"type": "address[16]"
				}
			],
			"stateMutability": "view",
			"type": "function"
		},
		{
			"inputs": [
				{
					"internalType": "uint256",
					"name": "",
					"type": "uint256"
				}
			],
			"name": "tikets",
			"outputs": [
				{
					"internalType": "address",
					"name": "",
					"type": "address"
				}
			],
			"stateMutability": "view",
			"type": "function"
		}
	]
}